{
  "_format": "hh-sol-artifact-1",
  "contractName": "MyEpicGame",
  "sourceName": "contracts/MyEpicGame.sol",
  "abi": [
    {
      "inputs": [
        {
          "internalType": "string[]",
          "name": "characterName",
          "type": "string[]"
        },
        {
          "internalType": "string[]",
          "name": "characterImage",
          "type": "string[]"
        },
        {
          "internalType": "uint256[]",
          "name": "characterHp",
          "type": "uint256[]"
        },
        {
          "internalType": "uint256[]",
          "name": "characterAttackdmg",
          "type": "uint256[]"
        },
        {
          "internalType": "string",
          "name": "bossName",
          "type": "string"
        },
        {
          "internalType": "string",
          "name": "bossImage",
          "type": "string"
        },
        {
          "internalType": "uint256",
          "name": "bossHp",
          "type": "uint256"
        },
        {
          "internalType": "uint256",
          "name": "bossAttackdmg",
          "type": "uint256"
        }
      ],
      "stateMutability": "nonpayable",
      "type": "constructor"
    },
    {
      "anonymous": false,
      "inputs": [
        {
          "indexed": true,
          "internalType": "address",
          "name": "owner",
          "type": "address"
        },
        {
          "indexed": true,
          "internalType": "address",
          "name": "approved",
          "type": "address"
        },
        {
          "indexed": true,
          "internalType": "uint256",
          "name": "tokenId",
          "type": "uint256"
        }
      ],
      "name": "Approval",
      "type": "event"
    },
    {
      "anonymous": false,
      "inputs": [
        {
          "indexed": true,
          "internalType": "address",
          "name": "owner",
          "type": "address"
        },
        {
          "indexed": true,
          "internalType": "address",
          "name": "operator",
          "type": "address"
        },
        {
          "indexed": false,
          "internalType": "bool",
          "name": "approved",
          "type": "bool"
        }
      ],
      "name": "ApprovalForAll",
      "type": "event"
    },
    {
      "anonymous": false,
      "inputs": [
        {
          "indexed": false,
          "internalType": "uint256",
          "name": "newBossHp",
          "type": "uint256"
        },
        {
          "indexed": false,
          "internalType": "uint256",
          "name": "newPlayerHp",
          "type": "uint256"
        }
      ],
      "name": "AttackComplete",
      "type": "event"
    },
    {
      "anonymous": false,
      "inputs": [
        {
          "indexed": false,
          "internalType": "address",
          "name": "sender",
          "type": "address"
        },
        {
          "indexed": false,
          "internalType": "uint256",
          "name": "tokenId",
          "type": "uint256"
        },
        {
          "indexed": false,
          "internalType": "uint256",
          "name": "characterIndex",
          "type": "uint256"
        }
      ],
      "name": "CharacterNFTMinted",
      "type": "event"
    },
    {
      "anonymous": false,
      "inputs": [
        {
          "indexed": true,
          "internalType": "address",
          "name": "from",
          "type": "address"
        },
        {
          "indexed": true,
          "internalType": "address",
          "name": "to",
          "type": "address"
        },
        {
          "indexed": true,
          "internalType": "uint256",
          "name": "tokenId",
          "type": "uint256"
        }
      ],
      "name": "Transfer",
      "type": "event"
    },
    {
      "inputs": [
        {
          "internalType": "address",
          "name": "to",
          "type": "address"
        },
        {
          "internalType": "uint256",
          "name": "tokenId",
          "type": "uint256"
        }
      ],
      "name": "approve",
      "outputs": [],
      "stateMutability": "nonpayable",
      "type": "function"
    },
    {
      "inputs": [],
      "name": "attackBoss",
      "outputs": [],
      "stateMutability": "nonpayable",
      "type": "function"
    },
    {
      "inputs": [
        {
          "internalType": "address",
          "name": "owner",
          "type": "address"
        }
      ],
      "name": "balanceOf",
      "outputs": [
        {
          "internalType": "uint256",
          "name": "",
          "type": "uint256"
        }
      ],
      "stateMutability": "view",
      "type": "function"
    },
    {
      "inputs": [],
      "name": "bigBoss",
      "outputs": [
        {
          "internalType": "string",
          "name": "name",
          "type": "string"
        },
        {
          "internalType": "string",
          "name": "image",
          "type": "string"
        },
        {
          "internalType": "uint256",
          "name": "hp",
          "type": "uint256"
        },
        {
          "internalType": "uint256",
          "name": "maxhp",
          "type": "uint256"
        },
        {
          "internalType": "uint256",
          "name": "attackdmg",
          "type": "uint256"
        }
      ],
      "stateMutability": "view",
      "type": "function"
    },
    {
      "inputs": [],
      "name": "checkIfUserHasNFT",
      "outputs": [
        {
          "components": [
            {
              "internalType": "uint256",
              "name": "id",
              "type": "uint256"
            },
            {
              "internalType": "string",
              "name": "name",
              "type": "string"
            },
            {
              "internalType": "string",
              "name": "image",
              "type": "string"
            },
            {
              "internalType": "uint256",
              "name": "hp",
              "type": "uint256"
            },
            {
              "internalType": "uint256",
              "name": "maxhp",
              "type": "uint256"
            },
            {
              "internalType": "uint256",
              "name": "attackdmg",
              "type": "uint256"
            }
          ],
          "internalType": "struct MyEpicGame.characterEnergy",
          "name": "",
          "type": "tuple"
        }
      ],
      "stateMutability": "view",
      "type": "function"
    },
    {
      "inputs": [],
      "name": "getAllDefaultCharacters",
      "outputs": [
        {
          "components": [
            {
              "internalType": "uint256",
              "name": "id",
              "type": "uint256"
            },
            {
              "internalType": "string",
              "name": "name",
              "type": "string"
            },
            {
              "internalType": "string",
              "name": "image",
              "type": "string"
            },
            {
              "internalType": "uint256",
              "name": "hp",
              "type": "uint256"
            },
            {
              "internalType": "uint256",
              "name": "maxhp",
              "type": "uint256"
            },
            {
              "internalType": "uint256",
              "name": "attackdmg",
              "type": "uint256"
            }
          ],
          "internalType": "struct MyEpicGame.characterEnergy[]",
          "name": "",
          "type": "tuple[]"
        }
      ],
      "stateMutability": "view",
      "type": "function"
    },
    {
      "inputs": [
        {
          "internalType": "uint256",
          "name": "tokenId",
          "type": "uint256"
        }
      ],
      "name": "getApproved",
      "outputs": [
        {
          "internalType": "address",
          "name": "",
          "type": "address"
        }
      ],
      "stateMutability": "view",
      "type": "function"
    },
    {
      "inputs": [],
      "name": "getBigBoss",
      "outputs": [
        {
          "components": [
            {
              "internalType": "string",
              "name": "name",
              "type": "string"
            },
            {
              "internalType": "string",
              "name": "image",
              "type": "string"
            },
            {
              "internalType": "uint256",
              "name": "hp",
              "type": "uint256"
            },
            {
              "internalType": "uint256",
              "name": "maxhp",
              "type": "uint256"
            },
            {
              "internalType": "uint256",
              "name": "attackdmg",
              "type": "uint256"
            }
          ],
          "internalType": "struct MyEpicGame.boss",
          "name": "",
          "type": "tuple"
        }
      ],
      "stateMutability": "view",
      "type": "function"
    },
    {
      "inputs": [
        {
          "internalType": "address",
          "name": "owner",
          "type": "address"
        },
        {
          "internalType": "address",
          "name": "operator",
          "type": "address"
        }
      ],
      "name": "isApprovedForAll",
      "outputs": [
        {
          "internalType": "bool",
          "name": "",
          "type": "bool"
        }
      ],
      "stateMutability": "view",
      "type": "function"
    },
    {
      "inputs": [
        {
          "internalType": "uint256",
          "name": "_characterIndex",
          "type": "uint256"
        }
      ],
      "name": "mintMonsterNFT",
      "outputs": [],
      "stateMutability": "nonpayable",
      "type": "function"
    },
    {
      "inputs": [],
      "name": "name",
      "outputs": [
        {
          "internalType": "string",
          "name": "",
          "type": "string"
        }
      ],
      "stateMutability": "view",
      "type": "function"
    },
    {
      "inputs": [
        {
          "internalType": "uint256",
          "name": "tokenId",
          "type": "uint256"
        }
      ],
      "name": "ownerOf",
      "outputs": [
        {
          "internalType": "address",
          "name": "",
          "type": "address"
        }
      ],
      "stateMutability": "view",
      "type": "function"
    },
    {
      "inputs": [
        {
          "internalType": "address",
          "name": "from",
          "type": "address"
        },
        {
          "internalType": "address",
          "name": "to",
          "type": "address"
        },
        {
          "internalType": "uint256",
          "name": "tokenId",
          "type": "uint256"
        }
      ],
      "name": "safeTransferFrom",
      "outputs": [],
      "stateMutability": "nonpayable",
      "type": "function"
    },
    {
      "inputs": [
        {
          "internalType": "address",
          "name": "from",
          "type": "address"
        },
        {
          "internalType": "address",
          "name": "to",
          "type": "address"
        },
        {
          "internalType": "uint256",
          "name": "tokenId",
          "type": "uint256"
        },
        {
          "internalType": "bytes",
          "name": "_data",
          "type": "bytes"
        }
      ],
      "name": "safeTransferFrom",
      "outputs": [],
      "stateMutability": "nonpayable",
      "type": "function"
    },
    {
      "inputs": [
        {
          "internalType": "address",
          "name": "operator",
          "type": "address"
        },
        {
          "internalType": "bool",
          "name": "approved",
          "type": "bool"
        }
      ],
      "name": "setApprovalForAll",
      "outputs": [],
      "stateMutability": "nonpayable",
      "type": "function"
    },
    {
      "inputs": [
        {
          "internalType": "bytes4",
          "name": "interfaceId",
          "type": "bytes4"
        }
      ],
      "name": "supportsInterface",
      "outputs": [
        {
          "internalType": "bool",
          "name": "",
          "type": "bool"
        }
      ],
      "stateMutability": "view",
      "type": "function"
    },
    {
      "inputs": [],
      "name": "symbol",
      "outputs": [
        {
          "internalType": "string",
          "name": "",
          "type": "string"
        }
      ],
      "stateMutability": "view",
      "type": "function"
    },
    {
      "inputs": [
        {
          "internalType": "uint256",
          "name": "_tokenId",
          "type": "uint256"
        }
      ],
      "name": "tokenURI",
      "outputs": [
        {
          "internalType": "string",
          "name": "",
          "type": "string"
        }
      ],
      "stateMutability": "view",
      "type": "function"
    },
    {
      "inputs": [
        {
          "internalType": "address",
          "name": "from",
          "type": "address"
        },
        {
          "internalType": "address",
          "name": "to",
          "type": "address"
        },
        {
          "internalType": "uint256",
          "name": "tokenId",
          "type": "uint256"
        }
      ],
      "name": "transferFrom",
      "outputs": [],
      "stateMutability": "nonpayable",
      "type": "function"
    }
  ],
  "bytecode": "0x60806040523480156200001157600080fd5b506040516200549738038062005497833981810160405281019062000037919062000a75565b6040518060400160405280600781526020017f4d6f6e73746572000000000000000000000000000000000000000000000000008152506040518060400160405280600481526020017f4d4f4e53000000000000000000000000000000000000000000000000000000008152508160009080519060200190620000bb92919062000808565b508060019080519060200190620000d492919062000808565b5050506040518060a0016040528085815260200184815260200183815260200183815260200182815250600660008201518160000190805190602001906200011e92919062000808565b5060208201518160010190805190602001906200013d92919062000808565b50604082015181600201556060820151816003015560808201518160040155905050620002c06040518060600160405280602a81526020016200546d602a9139600660000180546200018f9062000da3565b80601f0160208091040260200160405190810160405280929190818152602001828054620001bd9062000da3565b80156200020e5780601f10620001e2576101008083540402835291602001916200020e565b820191906000526020600020905b815481529060010190602001808311620001f057829003601f168201915b5050505050600660020154600660010180546200022b9062000da3565b80601f0160208091040260200160405190810160405280929190818152602001828054620002599062000da3565b8015620002aa5780601f106200027e57610100808354040283529160200191620002aa565b820191906000526020600020905b8154815290600101906020018083116200028c57829003601f168201915b50505050506200071d60201b620019f61760201c565b60005b8851811015620006f757600c6040518060c001604052808381526020018b84815181106200031a577f4e487b7100000000000000000000000000000000000000000000000000000000600052603260045260246000fd5b602002602001015181526020018a848151811062000361577f4e487b7100000000000000000000000000000000000000000000000000000000600052603260045260246000fd5b60200260200101518152602001898481518110620003a8577f4e487b7100000000000000000000000000000000000000000000000000000000600052603260045260246000fd5b60200260200101518152602001898481518110620003ef577f4e487b7100000000000000000000000000000000000000000000000000000000600052603260045260246000fd5b6020026020010151815260200188848151811062000436577f4e487b7100000000000000000000000000000000000000000000000000000000600052603260045260246000fd5b602002602001015181525090806001815401808255809150506001900390600052602060002090600602016000909190919091506000820151816000015560208201518160010190805190602001906200049292919062000808565b506040820151816002019080519060200190620004b192919062000808565b50606082015181600301556080820151816004015560a0820151816005015550506000600c82815481106200050f577f4e487b7100000000000000000000000000000000000000000000000000000000600052603260045260246000fd5b90600052602060002090600602016040518060c001604052908160008201548152602001600182018054620005449062000da3565b80601f0160208091040260200160405190810160405280929190818152602001828054620005729062000da3565b8015620005c35780601f106200059757610100808354040283529160200191620005c3565b820191906000526020600020905b815481529060010190602001808311620005a557829003601f168201915b50505050508152602001600282018054620005de9062000da3565b80601f01602080910402602001604051908101604052809291908181526020018280546200060c9062000da3565b80156200065d5780601f1062000631576101008083540402835291602001916200065d565b820191906000526020600020905b8154815290600101906020018083116200063f57829003601f168201915b5050505050815260200160038201548152602001600482015481526020016005820154815250509050620006e06040518060400160405280601b81526020017f4372656174656420257320772f2048502025732c20696d6720257300000000008152508260200151836060015184604001516200071d60201b620019f61760201c565b508080620006ee9062000dd9565b915050620002c3565b506200070f600b620007c960201b62001a981760201c565b505050505050505062000edf565b620007c3848484846040516024016200073a949392919062000c20565b6040516020818303038152906040527f8d142cdd000000000000000000000000000000000000000000000000000000007bffffffffffffffffffffffffffffffffffffffffffffffffffffffff19166020820180517bffffffffffffffffffffffffffffffffffffffffffffffffffffffff8381831617835250505050620007df60201b60201c565b50505050565b6001816000016000828254019250508190555050565b60008151905060006a636f6e736f6c652e6c6f679050602083016000808483855afa5050505050565b828054620008169062000da3565b90600052602060002090601f0160209004810192826200083a576000855562000886565b82601f106200085557805160ff191683800117855562000886565b8280016001018555821562000886579182015b828111156200088557825182559160200191906001019062000868565b5b50905062000895919062000899565b5090565b5b80821115620008b45760008160009055506001016200089a565b5090565b6000620008cf620008c98462000cb6565b62000c82565b9050808382526020820190508260005b85811015620009135781518501620008f8888262000a31565b845260208401935060208301925050600181019050620008df565b5050509392505050565b6000620009346200092e8462000ce5565b62000c82565b905080838252602082019050828560208602820111156200095457600080fd5b60005b858110156200098857816200096d888262000a5e565b84526020840193506020830192505060018101905062000957565b5050509392505050565b6000620009a9620009a38462000d14565b62000c82565b905082815260208101848484011115620009c257600080fd5b620009cf84828562000d6d565b509392505050565b600082601f830112620009e957600080fd5b8151620009fb848260208601620008b8565b91505092915050565b600082601f83011262000a1657600080fd5b815162000a288482602086016200091d565b91505092915050565b600082601f83011262000a4357600080fd5b815162000a5584826020860162000992565b91505092915050565b60008151905062000a6f8162000ec5565b92915050565b600080600080600080600080610100898b03121562000a9357600080fd5b600089015167ffffffffffffffff81111562000aae57600080fd5b62000abc8b828c01620009d7565b985050602089015167ffffffffffffffff81111562000ada57600080fd5b62000ae88b828c01620009d7565b975050604089015167ffffffffffffffff81111562000b0657600080fd5b62000b148b828c0162000a04565b965050606089015167ffffffffffffffff81111562000b3257600080fd5b62000b408b828c0162000a04565b955050608089015167ffffffffffffffff81111562000b5e57600080fd5b62000b6c8b828c0162000a31565b94505060a089015167ffffffffffffffff81111562000b8a57600080fd5b62000b988b828c0162000a31565b93505060c062000bab8b828c0162000a5e565b92505060e062000bbe8b828c0162000a5e565b9150509295985092959890939650565b600062000bdb8262000d47565b62000be7818562000d52565b935062000bf981856020860162000d6d565b62000c048162000eb4565b840191505092915050565b62000c1a8162000d63565b82525050565b6000608082019050818103600083015262000c3c818762000bce565b9050818103602083015262000c52818662000bce565b905062000c63604083018562000c0f565b818103606083015262000c77818462000bce565b905095945050505050565b6000604051905081810181811067ffffffffffffffff8211171562000cac5762000cab62000e85565b5b8060405250919050565b600067ffffffffffffffff82111562000cd45762000cd362000e85565b5b602082029050602081019050919050565b600067ffffffffffffffff82111562000d035762000d0262000e85565b5b602082029050602081019050919050565b600067ffffffffffffffff82111562000d325762000d3162000e85565b5b601f19601f8301169050602081019050919050565b600081519050919050565b600082825260208201905092915050565b6000819050919050565b60005b8381101562000d8d57808201518184015260208101905062000d70565b8381111562000d9d576000848401525b50505050565b6000600282049050600182168062000dbc57607f821691505b6020821081141562000dd35762000dd262000e56565b5b50919050565b600062000de68262000d63565b91507fffffffffffffffffffffffffffffffffffffffffffffffffffffffffffffffff82141562000e1c5762000e1b62000e27565b5b600182019050919050565b7f4e487b7100000000000000000000000000000000000000000000000000000000600052601160045260246000fd5b7f4e487b7100000000000000000000000000000000000000000000000000000000600052602260045260246000fd5b7f4e487b7100000000000000000000000000000000000000000000000000000000600052604160045260246000fd5b6000601f19601f8301169050919050565b62000ed08162000d63565b811462000edc57600080fd5b50565b61457e8062000eef6000396000f3fe608060405234801561001057600080fd5b50600436106101215760003560e01c806370a08231116100ad578063b953084e11610071578063b953084e1461030a578063c87b56dd14610328578063c8cf27f414610358578063d4f24c5b14610376578063e985e9c51461038057610121565b806370a082311461026257806395d89b4114610292578063a22cb465146102b0578063a9c32679146102cc578063b88d4fde146102ee57610121565b8063095ea7b3116100f4578063095ea7b3146101c257806323b872dd146101de57806342842e0e146101fa57806348132de4146102165780636352211e1461023257610121565b806301ffc9a7146101265780630665f9611461015657806306fdde0314610174578063081812fc14610192575b600080fd5b610140600480360381019061013b9190612e3d565b6103b0565b60405161014d9190613b9d565b60405180910390f35b61015e610492565b60405161016b9190613f36565b60405180910390f35b61017c6105ee565b6040516101899190613bb8565b60405180910390f35b6101ac60048036038101906101a79190612e8f565b610680565b6040516101b99190613add565b60405180910390f35b6101dc60048036038101906101d79190612e01565b610705565b005b6101f860048036038101906101f39190612cfb565b61081d565b005b610214600480360381019061020f9190612cfb565b61087d565b005b610230600480360381019061022b9190612e8f565b61089d565b005b61024c60048036038101906102479190612e8f565b610c91565b6040516102599190613add565b60405180910390f35b61027c60048036038101906102779190612c96565b610d43565b6040516102899190613f7a565b60405180910390f35b61029a610dfb565b6040516102a79190613bb8565b60405180910390f35b6102ca60048036038101906102c59190612dc5565b610e8d565b005b6102d4610ea3565b6040516102e5959493929190613c87565b60405180910390f35b61030860048036038101906103039190612d4a565b610fd7565b005b610312611039565b60405161031f9190613b7b565b60405180910390f35b610342600480360381019061033d9190612e8f565b6111e4565b60405161034f9190613bb8565b60405180910390f35b6103606113ff565b60405161036d9190613f58565b60405180910390f35b61037e6115d7565b005b61039a60048036038101906103959190612cbf565b611962565b6040516103a79190613b9d565b60405180910390f35b60007f80ac58cd000000000000000000000000000000000000000000000000000000007bffffffffffffffffffffffffffffffffffffffffffffffffffffffff1916827bffffffffffffffffffffffffffffffffffffffffffffffffffffffff1916148061047b57507f5b5e139f000000000000000000000000000000000000000000000000000000007bffffffffffffffffffffffffffffffffffffffffffffffffffffffff1916827bffffffffffffffffffffffffffffffffffffffffffffffffffffffff1916145b8061048b575061048a82611aae565b5b9050919050565b61049a612abd565b60066040518060a00160405290816000820180546104b790614277565b80601f01602080910402602001604051908101604052809291908181526020018280546104e390614277565b80156105305780601f1061050557610100808354040283529160200191610530565b820191906000526020600020905b81548152906001019060200180831161051357829003601f168201915b5050505050815260200160018201805461054990614277565b80601f016020809104026020016040519081016040528092919081815260200182805461057590614277565b80156105c25780601f10610597576101008083540402835291602001916105c2565b820191906000526020600020905b8154815290600101906020018083116105a557829003601f168201915b505050505081526020016002820154815260200160038201548152602001600482015481525050905090565b6060600080546105fd90614277565b80601f016020809104026020016040519081016040528092919081815260200182805461062990614277565b80156106765780601f1061064b57610100808354040283529160200191610676565b820191906000526020600020905b81548152906001019060200180831161065957829003601f168201915b5050505050905090565b600061068b82611b18565b6106ca576040517f08c379a00000000000000000000000000000000000000000000000000000000081526004016106c190613e96565b60405180910390fd5b6004600083815260200190815260200160002060009054906101000a900473ffffffffffffffffffffffffffffffffffffffff169050919050565b600061071082610c91565b90508073ffffffffffffffffffffffffffffffffffffffff168373ffffffffffffffffffffffffffffffffffffffff161415610781576040517f08c379a000000000000000000000000000000000000000000000000000000000815260040161077890613ed6565b60405180910390fd5b8073ffffffffffffffffffffffffffffffffffffffff166107a0611b84565b73ffffffffffffffffffffffffffffffffffffffff1614806107cf57506107ce816107c9611b84565b611962565b5b61080e576040517f08c379a000000000000000000000000000000000000000000000000000000000815260040161080590613df6565b60405180910390fd5b6108188383611b8c565b505050565b61082e610828611b84565b82611c45565b61086d576040517f08c379a000000000000000000000000000000000000000000000000000000000815260040161086490613ef6565b60405180910390fd5b610878838383611d23565b505050565b61089883838360405180602001604052806000815250610fd7565b505050565b60006108a9600b611f7f565b90506108b53382611f8d565b6040518060c00160405280838152602001600c8481548110610900577f4e487b7100000000000000000000000000000000000000000000000000000000600052603260045260246000fd5b9060005260206000209060060201600101805461091c90614277565b80601f016020809104026020016040519081016040528092919081815260200182805461094890614277565b80156109955780601f1061096a57610100808354040283529160200191610995565b820191906000526020600020905b81548152906001019060200180831161097857829003601f168201915b50505050508152602001600c84815481106109d9577f4e487b7100000000000000000000000000000000000000000000000000000000600052603260045260246000fd5b906000526020600020906006020160020180546109f590614277565b80601f0160208091040260200160405190810160405280929190818152602001828054610a2190614277565b8015610a6e5780601f10610a4357610100808354040283529160200191610a6e565b820191906000526020600020905b815481529060010190602001808311610a5157829003601f168201915b50505050508152602001600c8481548110610ab2577f4e487b7100000000000000000000000000000000000000000000000000000000600052603260045260246000fd5b9060005260206000209060060201600301548152602001600c8481548110610b03577f4e487b7100000000000000000000000000000000000000000000000000000000600052603260045260246000fd5b9060005260206000209060060201600401548152602001600c8481548110610b54577f4e487b7100000000000000000000000000000000000000000000000000000000600052603260045260246000fd5b906000526020600020906006020160050154815250600d6000838152602001908152602001600020600082015181600001556020820151816001019080519060200190610ba2929190612aec565b506040820151816002019080519060200190610bbf929190612aec565b50606082015181600301556080820151816004015560a08201518160050155905050610c046040518060600160405280603381526020016144da603391398284611fab565b80600e60003373ffffffffffffffffffffffffffffffffffffffff1673ffffffffffffffffffffffffffffffffffffffff16815260200190815260200160002081905550610c52600b611a98565b7f4bc303fd457a97b4691b9af582ce71868a3d258638c8d4f8c60988a0f0bfb8cd338284604051610c8593929190613b44565b60405180910390a15050565b6000806002600084815260200190815260200160002060009054906101000a900473ffffffffffffffffffffffffffffffffffffffff169050600073ffffffffffffffffffffffffffffffffffffffff168173ffffffffffffffffffffffffffffffffffffffff161415610d3a576040517f08c379a0000000000000000000000000000000000000000000000000000000008152600401610d3190613e36565b60405180910390fd5b80915050919050565b60008073ffffffffffffffffffffffffffffffffffffffff168273ffffffffffffffffffffffffffffffffffffffff161415610db4576040517f08c379a0000000000000000000000000000000000000000000000000000000008152600401610dab90613e16565b60405180910390fd5b600360008373ffffffffffffffffffffffffffffffffffffffff1673ffffffffffffffffffffffffffffffffffffffff168152602001908152602001600020549050919050565b606060018054610e0a90614277565b80601f0160208091040260200160405190810160405280929190818152602001828054610e3690614277565b8015610e835780601f10610e5857610100808354040283529160200191610e83565b820191906000526020600020905b815481529060010190602001808311610e6657829003601f168201915b5050505050905090565b610e9f610e98611b84565b838361204a565b5050565b6006806000018054610eb490614277565b80601f0160208091040260200160405190810160405280929190818152602001828054610ee090614277565b8015610f2d5780601f10610f0257610100808354040283529160200191610f2d565b820191906000526020600020905b815481529060010190602001808311610f1057829003601f168201915b505050505090806001018054610f4290614277565b80601f0160208091040260200160405190810160405280929190818152602001828054610f6e90614277565b8015610fbb5780601f10610f9057610100808354040283529160200191610fbb565b820191906000526020600020905b815481529060010190602001808311610f9e57829003601f168201915b5050505050908060020154908060030154908060040154905085565b610fe8610fe2611b84565b83611c45565b611027576040517f08c379a000000000000000000000000000000000000000000000000000000000815260040161101e90613ef6565b60405180910390fd5b611033848484846121b7565b50505050565b6060600c805480602002602001604051908101604052809291908181526020016000905b828210156111db57838290600052602060002090600602016040518060c00160405290816000820154815260200160018201805461109a90614277565b80601f01602080910402602001604051908101604052809291908181526020018280546110c690614277565b80156111135780601f106110e857610100808354040283529160200191611113565b820191906000526020600020905b8154815290600101906020018083116110f657829003601f168201915b5050505050815260200160028201805461112c90614277565b80601f016020809104026020016040519081016040528092919081815260200182805461115890614277565b80156111a55780601f1061117a576101008083540402835291602001916111a5565b820191906000526020600020905b81548152906001019060200180831161118857829003601f168201915b5050505050815260200160038201548152602001600482015481526020016005820154815250508152602001906001019061105d565b50505050905090565b60606000600d60008481526020019081526020016000206040518060c00160405290816000820154815260200160018201805461122090614277565b80601f016020809104026020016040519081016040528092919081815260200182805461124c90614277565b80156112995780601f1061126e57610100808354040283529160200191611299565b820191906000526020600020905b81548152906001019060200180831161127c57829003601f168201915b505050505081526020016002820180546112b290614277565b80601f01602080910402602001604051908101604052809291908181526020018280546112de90614277565b801561132b5780601f106113005761010080835404028352916020019161132b565b820191906000526020600020905b81548152906001019060200180831161130e57829003601f168201915b505050505081526020016003820154815260200160048201548152602001600582015481525050905060006113638260600151612213565b905060006113748360800151612213565b905060006113858460a00151612213565b905060006113cb856020015161139a89612213565b87604001518787876040516020016113b796959493929190613a16565b6040516020818303038152906040526123c0565b90506000816040516020016113e09190613abb565b6040516020818303038152906040529050809650505050505050919050565b611407612b72565b6000600e60003373ffffffffffffffffffffffffffffffffffffffff1673ffffffffffffffffffffffffffffffffffffffff16815260200190815260200160002054905060008111156115c657600d60008281526020019081526020016000206040518060c00160405290816000820154815260200160018201805461148c90614277565b80601f01602080910402602001604051908101604052809291908181526020018280546114b890614277565b80156115055780601f106114da57610100808354040283529160200191611505565b820191906000526020600020905b8154815290600101906020018083116114e857829003601f168201915b5050505050815260200160028201805461151e90614277565b80601f016020809104026020016040519081016040528092919081815260200182805461154a90614277565b80156115975780601f1061156c57610100808354040283529160200191611597565b820191906000526020600020905b81548152906001019060200180831161157a57829003601f168201915b5050505050815260200160038201548152602001600482015481526020016005820154815250509150506115d4565b6115ce612b72565b80925050505b90565b6000600e60003373ffffffffffffffffffffffffffffffffffffffff1673ffffffffffffffffffffffffffffffffffffffff1681526020019081526020016000205490506000600d600083815260200190815260200160002090506116ea6040518060600160405280603c815260200161450d603c913982600101805461165d90614277565b80601f016020809104026020016040519081016040528092919081815260200182805461168990614277565b80156116d65780601f106116ab576101008083540402835291602001916116d6565b820191906000526020600020905b8154815290600101906020018083116116b957829003601f168201915b50505050508360030154846005015461257e565b6117c26040518060400160405280601b81526020017f426f73732025732068617320257320485020616e6420257320414400000000008152506006600001805461173390614277565b80601f016020809104026020016040519081016040528092919081815260200182805461175f90614277565b80156117ac5780601f10611781576101008083540402835291602001916117ac565b820191906000526020600020905b81548152906001019060200180831161178f57829003601f168201915b505050505060066002015460066004015461257e565b6000816003015411611809576040517f08c379a000000000000000000000000000000000000000000000000000000000815260040161180090613e56565b60405180910390fd5b600060066002015411611851576040517f08c379a000000000000000000000000000000000000000000000000000000000815260040161184890613f16565b60405180910390fd5b80600501546006600201541015611872576000600660020181905550611891565b8060050154600660020154611887919061418d565b6006600201819055505b600660040154816003015410156118b157600081600301819055506118cf565b60066004015481600301546118c6919061418d565b81600301819055505b6118f660405180606001604052806025815260200161444d60259139600660020154612620565b61191c6040518060600160405280602881526020016144b2602891398260030154612620565b7f838ab28464562786a6c4ab2311964b82fa60bd9b14aa7e856af1f3f18d41a4146006600201548260030154604051611956929190613f95565b60405180910390a15050565b6000600560008473ffffffffffffffffffffffffffffffffffffffff1673ffffffffffffffffffffffffffffffffffffffff16815260200190815260200160002060008373ffffffffffffffffffffffffffffffffffffffff1673ffffffffffffffffffffffffffffffffffffffff16815260200190815260200160002060009054906101000a900460ff16905092915050565b611a9284848484604051602401611a109493929190613bda565b6040516020818303038152906040527f8d142cdd000000000000000000000000000000000000000000000000000000007bffffffffffffffffffffffffffffffffffffffffffffffffffffffff19166020820180517bffffffffffffffffffffffffffffffffffffffffffffffffffffffff83818316178352505050506126bc565b50505050565b6001816000016000828254019250508190555050565b60007f01ffc9a7000000000000000000000000000000000000000000000000000000007bffffffffffffffffffffffffffffffffffffffffffffffffffffffff1916827bffffffffffffffffffffffffffffffffffffffffffffffffffffffff1916149050919050565b60008073ffffffffffffffffffffffffffffffffffffffff166002600084815260200190815260200160002060009054906101000a900473ffffffffffffffffffffffffffffffffffffffff1673ffffffffffffffffffffffffffffffffffffffff1614159050919050565b600033905090565b816004600083815260200190815260200160002060006101000a81548173ffffffffffffffffffffffffffffffffffffffff021916908373ffffffffffffffffffffffffffffffffffffffff160217905550808273ffffffffffffffffffffffffffffffffffffffff16611bff83610c91565b73ffffffffffffffffffffffffffffffffffffffff167f8c5be1e5ebec7d5bd14f71427d1e84f3dd0314c0f7b2291e5b200ac8c7c3b92560405160405180910390a45050565b6000611c5082611b18565b611c8f576040517f08c379a0000000000000000000000000000000000000000000000000000000008152600401611c8690613dd6565b60405180910390fd5b6000611c9a83610c91565b90508073ffffffffffffffffffffffffffffffffffffffff168473ffffffffffffffffffffffffffffffffffffffff161480611d0957508373ffffffffffffffffffffffffffffffffffffffff16611cf184610680565b73ffffffffffffffffffffffffffffffffffffffff16145b80611d1a5750611d198185611962565b5b91505092915050565b8273ffffffffffffffffffffffffffffffffffffffff16611d4382610c91565b73ffffffffffffffffffffffffffffffffffffffff1614611d99576040517f08c379a0000000000000000000000000000000000000000000000000000000008152600401611d9090613eb6565b60405180910390fd5b600073ffffffffffffffffffffffffffffffffffffffff168273ffffffffffffffffffffffffffffffffffffffff161415611e09576040517f08c379a0000000000000000000000000000000000000000000000000000000008152600401611e0090613d96565b60405180910390fd5b611e148383836126e5565b611e1f600082611b8c565b6001600360008573ffffffffffffffffffffffffffffffffffffffff1673ffffffffffffffffffffffffffffffffffffffff1681526020019081526020016000206000828254611e6f919061418d565b925050819055506001600360008473ffffffffffffffffffffffffffffffffffffffff1673ffffffffffffffffffffffffffffffffffffffff1681526020019081526020016000206000828254611ec691906140ac565b92505081905550816002600083815260200190815260200160002060006101000a81548173ffffffffffffffffffffffffffffffffffffffff021916908373ffffffffffffffffffffffffffffffffffffffff160217905550808273ffffffffffffffffffffffffffffffffffffffff168473ffffffffffffffffffffffffffffffffffffffff167fddf252ad1be2c89b69c2b068fc378daa952ba7f163c4a11628f55a4df523b3ef60405160405180910390a4505050565b600081600001549050919050565b611fa78282604051806020016040528060008152506126ea565b5050565b612045838383604051602401611fc393929190613d18565b6040516020818303038152906040527f969cdd03000000000000000000000000000000000000000000000000000000007bffffffffffffffffffffffffffffffffffffffffffffffffffffffff19166020820180517bffffffffffffffffffffffffffffffffffffffffffffffffffffffff83818316178352505050506126bc565b505050565b8173ffffffffffffffffffffffffffffffffffffffff168373ffffffffffffffffffffffffffffffffffffffff1614156120b9576040517f08c379a00000000000000000000000000000000000000000000000000000000081526004016120b090613db6565b60405180910390fd5b80600560008573ffffffffffffffffffffffffffffffffffffffff1673ffffffffffffffffffffffffffffffffffffffff16815260200190815260200160002060008473ffffffffffffffffffffffffffffffffffffffff1673ffffffffffffffffffffffffffffffffffffffff16815260200190815260200160002060006101000a81548160ff0219169083151502179055508173ffffffffffffffffffffffffffffffffffffffff168373ffffffffffffffffffffffffffffffffffffffff167f17307eab39ab6107e8899845ad3d59bd9653f200f220920489ca2b5937696c31836040516121aa9190613b9d565b60405180910390a3505050565b6121c2848484611d23565b6121ce84848484612745565b61220d576040517f08c379a000000000000000000000000000000000000000000000000000000000815260040161220490613d56565b60405180910390fd5b50505050565b6060600082141561225b576040518060400160405280600181526020017f300000000000000000000000000000000000000000000000000000000000000081525090506123bb565b600082905060005b6000821461228d578080612276906142a9565b915050600a826122869190614102565b9150612263565b60008167ffffffffffffffff8111156122cf577f4e487b7100000000000000000000000000000000000000000000000000000000600052604160045260246000fd5b6040519080825280601f01601f1916602001820160405280156123015781602001600182028036833780820191505090505b5090505b600085146123b45760018261231a919061418d565b9150600a8561232991906142f2565b603061233591906140ac565b60f81b818381518110612371577f4e487b7100000000000000000000000000000000000000000000000000000000600052603260045260246000fd5b60200101907effffffffffffffffffffffffffffffffffffffffffffffffffffffffffffff1916908160001a905350600a856123ad9190614102565b9450612305565b8093505050505b919050565b606060008251905060008114156123e95760405180602001604052806000815250915050612579565b600060036002836123fa91906140ac565b6124049190614102565b60046124109190614133565b9050600060208261242191906140ac565b67ffffffffffffffff811115612460577f4e487b7100000000000000000000000000000000000000000000000000000000600052604160045260246000fd5b6040519080825280601f01601f1916602001820160405280156124925781602001600182028036833780820191505090505b5090506000604051806060016040528060408152602001614472604091399050600181016020830160005b868110156125365760038101905062ffffff818a015116603f8160121c168401518060081b905060ff603f83600c1c1686015116810190508060081b905060ff603f8360061c1686015116810190508060081b905060ff603f831686015116810190508060e01b905080845260048401935050506124bd565b50600386066001811461255057600281146125605761256b565b613d3d60f01b600283035261256b565b603d60f81b60018303525b508484525050819450505050505b919050565b61261a848484846040516024016125989493929190613c34565b6040516020818303038152906040527fd5cf17d0000000000000000000000000000000000000000000000000000000007bffffffffffffffffffffffffffffffffffffffffffffffffffffffff19166020820180517bffffffffffffffffffffffffffffffffffffffffffffffffffffffff83818316178352505050506126bc565b50505050565b6126b88282604051602401612636929190613ce8565b6040516020818303038152906040527f9710a9d0000000000000000000000000000000000000000000000000000000007bffffffffffffffffffffffffffffffffffffffffffffffffffffffff19166020820180517bffffffffffffffffffffffffffffffffffffffffffffffffffffffff83818316178352505050506126bc565b5050565b60008151905060006a636f6e736f6c652e6c6f679050602083016000808483855afa5050505050565b505050565b6126f483836128dc565b6127016000848484612745565b612740576040517f08c379a000000000000000000000000000000000000000000000000000000000815260040161273790613d56565b60405180910390fd5b505050565b60006127668473ffffffffffffffffffffffffffffffffffffffff16612aaa565b156128cf578373ffffffffffffffffffffffffffffffffffffffff1663150b7a0261278f611b84565b8786866040518563ffffffff1660e01b81526004016127b19493929190613af8565b602060405180830381600087803b1580156127cb57600080fd5b505af19250505080156127fc57506040513d601f19601f820116820180604052508101906127f99190612e66565b60015b61287f573d806000811461282c576040519150601f19603f3d011682016040523d82523d6000602084013e612831565b606091505b50600081511415612877576040517f08c379a000000000000000000000000000000000000000000000000000000000815260040161286e90613d56565b60405180910390fd5b805181602001fd5b63150b7a0260e01b7bffffffffffffffffffffffffffffffffffffffffffffffffffffffff1916817bffffffffffffffffffffffffffffffffffffffffffffffffffffffff1916149150506128d4565b600190505b949350505050565b600073ffffffffffffffffffffffffffffffffffffffff168273ffffffffffffffffffffffffffffffffffffffff16141561294c576040517f08c379a000000000000000000000000000000000000000000000000000000000815260040161294390613e76565b60405180910390fd5b61295581611b18565b15612995576040517f08c379a000000000000000000000000000000000000000000000000000000000815260040161298c90613d76565b60405180910390fd5b6129a1600083836126e5565b6001600360008473ffffffffffffffffffffffffffffffffffffffff1673ffffffffffffffffffffffffffffffffffffffff16815260200190815260200160002060008282546129f191906140ac565b92505081905550816002600083815260200190815260200160002060006101000a81548173ffffffffffffffffffffffffffffffffffffffff021916908373ffffffffffffffffffffffffffffffffffffffff160217905550808273ffffffffffffffffffffffffffffffffffffffff16600073ffffffffffffffffffffffffffffffffffffffff167fddf252ad1be2c89b69c2b068fc378daa952ba7f163c4a11628f55a4df523b3ef60405160405180910390a45050565b600080823b905060008111915050919050565b6040518060a0016040528060608152602001606081526020016000815260200160008152602001600081525090565b828054612af890614277565b90600052602060002090601f016020900481019282612b1a5760008555612b61565b82601f10612b3357805160ff1916838001178555612b61565b82800160010185558215612b61579182015b82811115612b60578251825591602001919060010190612b45565b5b509050612b6e9190612ba8565b5090565b6040518060c001604052806000815260200160608152602001606081526020016000815260200160008152602001600081525090565b5b80821115612bc1576000816000905550600101612ba9565b5090565b6000612bd8612bd384613fef565b613fbe565b905082815260208101848484011115612bf057600080fd5b612bfb848285614235565b509392505050565b600081359050612c12816143f0565b92915050565b600081359050612c2781614407565b92915050565b600081359050612c3c8161441e565b92915050565b600081519050612c518161441e565b92915050565b600082601f830112612c6857600080fd5b8135612c78848260208601612bc5565b91505092915050565b600081359050612c9081614435565b92915050565b600060208284031215612ca857600080fd5b6000612cb684828501612c03565b91505092915050565b60008060408385031215612cd257600080fd5b6000612ce085828601612c03565b9250506020612cf185828601612c03565b9150509250929050565b600080600060608486031215612d1057600080fd5b6000612d1e86828701612c03565b9350506020612d2f86828701612c03565b9250506040612d4086828701612c81565b9150509250925092565b60008060008060808587031215612d6057600080fd5b6000612d6e87828801612c03565b9450506020612d7f87828801612c03565b9350506040612d9087828801612c81565b925050606085013567ffffffffffffffff811115612dad57600080fd5b612db987828801612c57565b91505092959194509250565b60008060408385031215612dd857600080fd5b6000612de685828601612c03565b9250506020612df785828601612c18565b9150509250929050565b60008060408385031215612e1457600080fd5b6000612e2285828601612c03565b9250506020612e3385828601612c81565b9150509250929050565b600060208284031215612e4f57600080fd5b6000612e5d84828501612c2d565b91505092915050565b600060208284031215612e7857600080fd5b6000612e8684828501612c42565b91505092915050565b600060208284031215612ea157600080fd5b6000612eaf84828501612c81565b91505092915050565b6000612ec483836138d8565b905092915050565b612ed5816141c1565b82525050565b6000612ee68261402f565b612ef0818561405d565b935083602082028501612f028561401f565b8060005b85811015612f3e5784840389528151612f1f8582612eb8565b9450612f2a83614050565b925060208a01995050600181019050612f06565b50829750879550505050505092915050565b612f59816141d3565b82525050565b6000612f6a8261403a565b612f74818561406e565b9350612f84818560208601614244565b612f8d816143df565b840191505092915050565b6000612fa382614045565b612fad818561407f565b9350612fbd818560208601614244565b612fc6816143df565b840191505092915050565b6000612fdc82614045565b612fe68185614090565b9350612ff6818560208601614244565b612fff816143df565b840191505092915050565b600061301582614045565b61301f81856140a1565b935061302f818560208601614244565b80840191505092915050565b6000613048600b836140a1565b91507f202d2d204e465420233a200000000000000000000000000000000000000000006000830152600b82019050919050565b6000613088603283614090565b91507f4552433732313a207472616e7366657220746f206e6f6e20455243373231526560008301527f63656976657220696d706c656d656e74657200000000000000000000000000006020830152604082019050919050565b60006130ee601c83614090565b91507f4552433732313a20746f6b656e20616c7265616479206d696e746564000000006000830152602082019050919050565b600061312e600e836140a1565b91507f2c20226d61785f76616c7565223a0000000000000000000000000000000000006000830152600e82019050919050565b600061316e602483614090565b91507f4552433732313a207472616e7366657220746f20746865207a65726f2061646460008301527f72657373000000000000000000000000000000000000000000000000000000006020830152604082019050919050565b60006131d4601983614090565b91507f4552433732313a20617070726f766520746f2063616c6c6572000000000000006000830152602082019050919050565b6000613214602c83614090565b91507f4552433732313a206f70657261746f7220717565727920666f72206e6f6e657860008301527f697374656e7420746f6b656e00000000000000000000000000000000000000006020830152604082019050919050565b600061327a603883614090565b91507f4552433732313a20617070726f76652063616c6c6572206973206e6f74206f7760008301527f6e6572206e6f7220617070726f76656420666f7220616c6c00000000000000006020830152604082019050919050565b60006132e0602a83614090565b91507f4552433732313a2062616c616e636520717565727920666f7220746865207a6560008301527f726f2061646472657373000000000000000000000000000000000000000000006020830152604082019050919050565b6000613346602983614090565b91507f4552433732313a206f776e657220717565727920666f72206e6f6e657869737460008301527f656e7420746f6b656e00000000000000000000000000000000000000000000006020830152604082019050919050565b60006133ac6062836140a1565b91507f222c20226465736372697074696f6e223a20225468697320697320616e204e4660008301527f542074686174206c6574732070656f706c6520706c617920696e20746865206760208301527f616d65204d657461766572736520536c6179657221222c2022696d616765223a60408301527f20220000000000000000000000000000000000000000000000000000000000006060830152606282019050919050565b600061345e602d83614090565b91507f4572726f723a20636861726163746572206d757374206861766520485020746f60008301527f2061747461636b20626f73732e000000000000000000000000000000000000006020830152604082019050919050565b60006134c46004836140a1565b91507f7d205d7d000000000000000000000000000000000000000000000000000000006000830152600482019050919050565b6000613504602083614090565b91507f4552433732313a206d696e7420746f20746865207a65726f20616464726573736000830152602082019050919050565b6000613544602c83614090565b91507f4552433732313a20617070726f76656420717565727920666f72206e6f6e657860008301527f697374656e7420746f6b656e00000000000000000000000000000000000000006020830152604082019050919050565b60006135aa602983614090565b91507f4552433732313a207472616e73666572206f6620746f6b656e2074686174206960008301527f73206e6f74206f776e00000000000000000000000000000000000000000000006020830152604082019050919050565b6000613610600a836140a1565b91507f7b226e616d65223a2022000000000000000000000000000000000000000000006000830152600a82019050919050565b6000613650602183614090565b91507f4552433732313a20617070726f76616c20746f2063757272656e74206f776e6560008301527f72000000000000000000000000000000000000000000000000000000000000006020830152604082019050919050565b60006136b6601d836140a1565b91507f646174613a6170706c69636174696f6e2f6a736f6e3b6261736536342c0000006000830152601d82019050919050565b60006136f6603183614090565b91507f4552433732313a207472616e736665722063616c6c6572206973206e6f74206f60008301527f776e6572206e6f7220617070726f7665640000000000000000000000000000006020830152604082019050919050565b600061375c603d836140a1565b91507f222c202261747472696275746573223a205b207b202274726169745f7479706560008301527f223a20224865616c746820506f696e7473222c202276616c7565223a200000006020830152603d82019050919050565b60006137c2602d836140a1565b91507f7d2c207b202274726169745f74797065223a202241747461636b2044616d616760008301527f65222c202276616c7565223a20000000000000000000000000000000000000006020830152602d82019050919050565b6000613828601983614090565b91507f4572726f723a20626f737320616c726561647920646561642e000000000000006000830152602082019050919050565b600060a08301600083015184820360008601526138788282612f98565b915050602083015184820360208601526138928282612f98565b91505060408301516138a760408601826139f8565b5060608301516138ba60608601826139f8565b5060808301516138cd60808601826139f8565b508091505092915050565b600060c0830160008301516138f060008601826139f8565b50602083015184820360208601526139088282612f98565b915050604083015184820360408601526139228282612f98565b915050606083015161393760608601826139f8565b50608083015161394a60808601826139f8565b5060a083015161395d60a08601826139f8565b508091505092915050565b600060c08301600083015161398060008601826139f8565b50602083015184820360208601526139988282612f98565b915050604083015184820360408601526139b28282612f98565b91505060608301516139c760608601826139f8565b5060808301516139da60808601826139f8565b5060a08301516139ed60a08601826139f8565b508091505092915050565b613a018161422b565b82525050565b613a108161422b565b82525050565b6000613a2182613603565b9150613a2d828961300a565b9150613a388261303b565b9150613a44828861300a565b9150613a4f8261339f565b9150613a5b828761300a565b9150613a668261374f565b9150613a72828661300a565b9150613a7d82613121565b9150613a89828561300a565b9150613a94826137b5565b9150613aa0828461300a565b9150613aab826134b7565b9150819050979650505050505050565b6000613ac6826136a9565b9150613ad2828461300a565b915081905092915050565b6000602082019050613af26000830184612ecc565b92915050565b6000608082019050613b0d6000830187612ecc565b613b1a6020830186612ecc565b613b276040830185613a07565b8181036060830152613b398184612f5f565b905095945050505050565b6000606082019050613b596000830186612ecc565b613b666020830185613a07565b613b736040830184613a07565b949350505050565b60006020820190508181036000830152613b958184612edb565b905092915050565b6000602082019050613bb26000830184612f50565b92915050565b60006020820190508181036000830152613bd28184612fd1565b905092915050565b60006080820190508181036000830152613bf48187612fd1565b90508181036020830152613c088186612fd1565b9050613c176040830185613a07565b8181036060830152613c298184612fd1565b905095945050505050565b60006080820190508181036000830152613c4e8187612fd1565b90508181036020830152613c628186612fd1565b9050613c716040830185613a07565b613c7e6060830184613a07565b95945050505050565b600060a0820190508181036000830152613ca18188612fd1565b90508181036020830152613cb58187612fd1565b9050613cc46040830186613a07565b613cd16060830185613a07565b613cde6080830184613a07565b9695505050505050565b60006040820190508181036000830152613d028185612fd1565b9050613d116020830184613a07565b9392505050565b60006060820190508181036000830152613d328186612fd1565b9050613d416020830185613a07565b613d4e6040830184613a07565b949350505050565b60006020820190508181036000830152613d6f8161307b565b9050919050565b60006020820190508181036000830152613d8f816130e1565b9050919050565b60006020820190508181036000830152613daf81613161565b9050919050565b60006020820190508181036000830152613dcf816131c7565b9050919050565b60006020820190508181036000830152613def81613207565b9050919050565b60006020820190508181036000830152613e0f8161326d565b9050919050565b60006020820190508181036000830152613e2f816132d3565b9050919050565b60006020820190508181036000830152613e4f81613339565b9050919050565b60006020820190508181036000830152613e6f81613451565b9050919050565b60006020820190508181036000830152613e8f816134f7565b9050919050565b60006020820190508181036000830152613eaf81613537565b9050919050565b60006020820190508181036000830152613ecf8161359d565b9050919050565b60006020820190508181036000830152613eef81613643565b9050919050565b60006020820190508181036000830152613f0f816136e9565b9050919050565b60006020820190508181036000830152613f2f8161381b565b9050919050565b60006020820190508181036000830152613f50818461385b565b905092915050565b60006020820190508181036000830152613f728184613968565b905092915050565b6000602082019050613f8f6000830184613a07565b92915050565b6000604082019050613faa6000830185613a07565b613fb76020830184613a07565b9392505050565b6000604051905081810181811067ffffffffffffffff82111715613fe557613fe46143b0565b5b8060405250919050565b600067ffffffffffffffff82111561400a576140096143b0565b5b601f19601f8301169050602081019050919050565b6000819050602082019050919050565b600081519050919050565b600081519050919050565b600081519050919050565b6000602082019050919050565b600082825260208201905092915050565b600082825260208201905092915050565b600082825260208201905092915050565b600082825260208201905092915050565b600081905092915050565b60006140b78261422b565b91506140c28361422b565b9250827fffffffffffffffffffffffffffffffffffffffffffffffffffffffffffffffff038211156140f7576140f6614323565b5b828201905092915050565b600061410d8261422b565b91506141188361422b565b92508261412857614127614352565b5b828204905092915050565b600061413e8261422b565b91506141498361422b565b9250817fffffffffffffffffffffffffffffffffffffffffffffffffffffffffffffffff048311821515161561418257614181614323565b5b828202905092915050565b60006141988261422b565b91506141a38361422b565b9250828210156141b6576141b5614323565b5b828203905092915050565b60006141cc8261420b565b9050919050565b60008115159050919050565b60007fffffffff0000000000000000000000000000000000000000000000000000000082169050919050565b600073ffffffffffffffffffffffffffffffffffffffff82169050919050565b6000819050919050565b82818337600083830152505050565b60005b83811015614262578082015181840152602081019050614247565b83811115614271576000848401525b50505050565b6000600282049050600182168061428f57607f821691505b602082108114156142a3576142a2614381565b5b50919050565b60006142b48261422b565b91507fffffffffffffffffffffffffffffffffffffffffffffffffffffffffffffffff8214156142e7576142e6614323565b5b600182019050919050565b60006142fd8261422b565b91506143088361422b565b92508261431857614317614352565b5b828206905092915050565b7f4e487b7100000000000000000000000000000000000000000000000000000000600052601160045260246000fd5b7f4e487b7100000000000000000000000000000000000000000000000000000000600052601260045260246000fd5b7f4e487b7100000000000000000000000000000000000000000000000000000000600052602260045260246000fd5b7f4e487b7100000000000000000000000000000000000000000000000000000000600052604160045260246000fd5b6000601f19601f8301169050919050565b6143f9816141c1565b811461440457600080fd5b50565b614410816141d3565b811461441b57600080fd5b50565b614427816141df565b811461443257600080fd5b50565b61443e8161422b565b811461444957600080fd5b5056fe506c617965722061747461636b656420626f73732e204e657720626f73732068703a2025734142434445464748494a4b4c4d4e4f505152535455565758595a6162636465666768696a6b6c6d6e6f707172737475767778797a303132333435363738392b2f426f73732061747461636b656420706c617965722e204e657720706c617965722068703a2025730a4d696e746564204d4f4e53204e465420772f20746f6b656e496420257320616e6420636861726163746572496e6465782025730a506c6179657220772f206368617261637465722025732061626f757420746f2061747461636b2e2048617320257320485020616e64202573204144a2646970667358221220b9c2bb1335f3c05b584f9bbbc3d4c65f73b029b058b615e907e935eb38a8c82364736f6c63430008000033446f6e6520696e697469616c697a696e6720626f737320257320772f2048502025732c20696d67202573",
  "linkReferences": {},
  "deployedLinkReferences": {}
}